:10024E00C2A57F647E001202841202DD12026912C0
:0B025E0000A67F647E0012028480F482
:03002300020100D7
:10010000C0E0C0F0C083C082C0D075D000C000C0C5
:1001100001C002C003C004C005C006C00730981863
:1001200085991DAD1CAF1D120153051CC298E51C1D
:10013000C394404003751C00D007D006D005D004FE
:10014000D003D002D001D000D0D0D082D083D0F064
:03015000D0E032CA
:10029C005389F0438901758A18758CFCC28DD28CF8
:0702AC00D2A9D2AFC2B922B2
:0D02F100EF4E600800EF1F70F71E80F42232
:04028400EF4E6013C6
:100288007514027515EFD515FDD514FAEF1F70EC2E
:010298001E47
:0302990080E922D7
:04000300EF4E601A42
:100007000075160875179A75187AD518FDD517FA59
:08001700D516F7EF1F70E51E7E
:03001F0080E2225A
:1002B3008F147F037E001202F1C2A4C2A5851480AD
:0502C300D2A6C2A62234
:1002C8008F147F037E001202F1D2A4C2A585148088
:0502D800D2A6C2A6221F
:080205008E0E8F0F8C108D117D
:10020D007F017E00E4FBEBC39511E5106480F8746B
:0E021D008098500AAC0EAD0F12003F0B80E827
:01022B0022B0
:10022C008F1E8D1FE51EB40109E51F144480FF12BB
:10023C0002B3E51EB4020AE51F243F4480FF1202FC
:02024C00B322DB
:1002DD007F381202B37F0C1202B37F061202B37F76
:0402ED00010202B355
:05031C007F010202B3A5
:0A030A008B2012022CAF200202C863
:1001DD008B198A1A891B12022CAB19AA1AA91B1288
:1001ED0000266013051BE51B7002051A14F9120099
:0801FD0026FF1202C880E22275
:04019C008A0A8B0B35
:1001A00012022C850C0DE50DD39400402FE50D2493
:1001B000FFFDE434FFFC7F0A7E00120205AC0AADAD
:1001C0000BCFCDCFCECCCE1200517C007D0A1200D9
:0C01D00051ED2430FF1202C8150D80CA4A
:0101DC002200
:100153008F12ED24F8602024F8602024F860202416
:10016300F8602024F8602024F8602024F86020241C
:100173003870217F40801A7F4880167F5080127F1D
:1001830058800E7F60800A7F6880067F7080027FC0
:09019300781202B3AF120202C897
:1000A60012031C7F057E001202847F801202B3E4D5
:1000B600FF1202C87F811202B37F011202C87F823B
:1000C6001202B37F021202C87F831202B37F0312A9
:1000D60002C87FC01202B37F041202C87FC1120297
:1000E600B37F051202C87FC21202B37F061202C88E
:0A00F6007FC31202B37F070202C8A5
:1002690043878075985053890F438920758BF3759F
:0B0279008DF3C2ABD28ED2AFD2AC220C
:080314008F993099FDC2992276
:030000000202FEFB
:0C02FE00787FE4F6D8FD75812002024EE6
:10002600BB010689828A83E0225002E722BBFE02D8
:09003600E32289828A83E493220B
:10003F00EF8DF0A4A8F0CF8CF0A428CE8DF0A42ED5
:02004F00FE228F
:10005100BC000BBE0029EF8DF084FFADF022E4CC93
:10006100F875F008EF2FFFEE33FEEC33FCEE9DEC5C
:10007100984005FCEE9DFE0FD5F0E9E4CEFD22EDA2
:10008100F8F5F0EE8420D21CFEADF075F008EF2FEC
:10009100FFED33FD4007985006D5F0F222C398FDDD
:0500A1000FD5F0EA227A
:00000001FF
